{
  "_format": "hh-sol-artifact-1",
  "contractName": "WavePortal",
  "sourceName": "contracts/WavePortal.sol",
  "abi": [
    {
      "inputs": [],
      "stateMutability": "payable",
      "type": "constructor"
    },
    {
      "anonymous": false,
      "inputs": [
        {
          "indexed": true,
          "internalType": "address",
          "name": "from",
          "type": "address"
        },
        {
          "indexed": false,
          "internalType": "uint256",
          "name": "timestamp",
          "type": "uint256"
        },
        {
          "indexed": false,
          "internalType": "string",
          "name": "message",
          "type": "string"
        },
        {
          "indexed": false,
          "internalType": "uint256",
          "name": "candidateId",
          "type": "uint256"
        }
      ],
      "name": "NewVote",
      "type": "event"
    },
    {
      "inputs": [],
      "name": "getAllVotes",
      "outputs": [
        {
          "components": [
            {
              "internalType": "address",
              "name": "voterAddress",
              "type": "address"
            },
            {
              "internalType": "string",
              "name": "message",
              "type": "string"
            },
            {
              "internalType": "uint256",
              "name": "timestamp",
              "type": "uint256"
            },
            {
              "internalType": "uint256",
              "name": "candidateId",
              "type": "uint256"
            }
          ],
          "internalType": "struct WavePortal.Vote[]",
          "name": "",
          "type": "tuple[]"
        }
      ],
      "stateMutability": "view",
      "type": "function"
    },
    {
      "inputs": [],
      "name": "getTotalVotes",
      "outputs": [
        {
          "components": [
            {
              "internalType": "uint256",
              "name": "totalVotes",
              "type": "uint256"
            },
            {
              "internalType": "uint256[]",
              "name": "votesByCandidate",
              "type": "uint256[]"
            }
          ],
          "internalType": "struct WavePortal.TotalVotes",
          "name": "",
          "type": "tuple"
        }
      ],
      "stateMutability": "view",
      "type": "function"
    },
    {
      "inputs": [],
      "name": "getVoter",
      "outputs": [
        {
          "components": [
            {
              "internalType": "address",
              "name": "voterAddress",
              "type": "address"
            },
            {
              "internalType": "uint256",
              "name": "totalVotes",
              "type": "uint256"
            },
            {
              "internalType": "uint256",
              "name": "firstVote",
              "type": "uint256"
            },
            {
              "internalType": "uint256",
              "name": "latestVote",
              "type": "uint256"
            },
            {
              "internalType": "uint256[]",
              "name": "votes",
              "type": "uint256[]"
            }
          ],
          "internalType": "struct WavePortal.Voter",
          "name": "",
          "type": "tuple"
        }
      ],
      "stateMutability": "view",
      "type": "function"
    },
    {
      "inputs": [
        {
          "internalType": "uint256",
          "name": "timestamp",
          "type": "uint256"
        },
        {
          "internalType": "uint256",
          "name": "candidateId",
          "type": "uint256"
        },
        {
          "internalType": "string",
          "name": "message",
          "type": "string"
        }
      ],
      "name": "vote",
      "outputs": [
        {
          "components": [
            {
              "internalType": "address",
              "name": "voterAddress",
              "type": "address"
            },
            {
              "internalType": "uint256",
              "name": "totalVotes",
              "type": "uint256"
            },
            {
              "internalType": "uint256",
              "name": "firstVote",
              "type": "uint256"
            },
            {
              "internalType": "uint256",
              "name": "latestVote",
              "type": "uint256"
            },
            {
              "internalType": "uint256[]",
              "name": "votes",
              "type": "uint256[]"
            }
          ],
          "internalType": "struct WavePortal.Voter",
          "name": "",
          "type": "tuple"
        }
      ],
      "stateMutability": "nonpayable",
      "type": "function"
    }
  ],
  "bytecode": "0x60806040526004600055620000546040518060400160405280601f81526020017f42656572506f7274616c20636f6e7374727563746f7220696e766f6b65643a00815250620001b560201b62000cc21760201c565b620000836040518060600160405280602581526020016200209e60259139620001b560201b62000cc21760201c565b6064444262000093919062000373565b6200009f91906200045e565b600581905550600060016000018190555060005467ffffffffffffffff811115620000f3577f4e487b7100000000000000000000000000000000000000000000000000000000600052604160045260246000fd5b604051908082528060200260200182016040528015620001225781602001602082028036833780820191505090505b506001800190805190602001906200013c92919062000281565b5060005b600054811015620001ae5760006001800182815481106200018a577f4e487b7100000000000000000000000000000000000000000000000000000000600052603260045260246000fd5b90600052602060002001819055508080620001a59062000410565b91505062000140565b5062000505565b6200025581604051602401620001cc919062000333565b6040516020818303038152906040527f41304fac000000000000000000000000000000000000000000000000000000007bffffffffffffffffffffffffffffffffffffffffffffffffffffffff19166020820180517bffffffffffffffffffffffffffffffffffffffffffffffffffffffff83818316178352505050506200025860201b60201c565b50565b60008151905060006a636f6e736f6c652e6c6f679050602083016000808483855afa5050505050565b828054828255906000526020600020908101928215620002c0579160200282015b82811115620002bf578251825591602001919060010190620002a2565b5b509050620002cf9190620002d3565b5090565b5b80821115620002ee576000816000905550600101620002d4565b5090565b6000620002ff8262000357565b6200030b818562000362565b93506200031d818560208601620003da565b6200032881620004f4565b840191505092915050565b600060208201905081810360008301526200034f8184620002f2565b905092915050565b600081519050919050565b600082825260208201905092915050565b60006200038082620003d0565b91506200038d83620003d0565b9250827fffffffffffffffffffffffffffffffffffffffffffffffffffffffffffffffff03821115620003c557620003c462000496565b5b828201905092915050565b6000819050919050565b60005b83811015620003fa578082015181840152602081019050620003dd565b838111156200040a576000848401525b50505050565b60006200041d82620003d0565b91507fffffffffffffffffffffffffffffffffffffffffffffffffffffffffffffffff82141562000453576200045262000496565b5b600182019050919050565b60006200046b82620003d0565b91506200047883620003d0565b9250826200048b576200048a620004c5565b5b828206905092915050565b7f4e487b7100000000000000000000000000000000000000000000000000000000600052601160045260246000fd5b7f4e487b7100000000000000000000000000000000000000000000000000000000600052601260045260246000fd5b6000601f19601f8301169050919050565b611b8980620005156000396000f3fe608060405234801561001057600080fd5b506004361061004c5760003560e01c80632b37f53c14610051578063851b6ef21461006f5780639a0e7d661461008d578063a1bbfc05146100ab575b600080fd5b6100596100db565b6040516100669190611750565b60405180910390f35b610077610204565b60405161008491906115cc565b60405180910390f35b61009561035f565b6040516100a2919061172e565b60405180910390f35b6100c560048036038101906100c09190611127565b61041f565b6040516100d29190611750565b60405180910390f35b6100e3610f5b565b6000600360003373ffffffffffffffffffffffffffffffffffffffff1673ffffffffffffffffffffffffffffffffffffffff1681526020019081526020016000206040518060a00160405290816000820160009054906101000a900473ffffffffffffffffffffffffffffffffffffffff1673ffffffffffffffffffffffffffffffffffffffff1673ffffffffffffffffffffffffffffffffffffffff168152602001600182015481526020016002820154815260200160038201548152602001600482018054806020026020016040519081016040528092919081815260200182805480156101f257602002820191906000526020600020905b8154815260200190600101908083116101de575b50505050508152505090508091505090565b60606004805480602002602001604051908101604052809291908181526020016000905b8282101561035657838290600052602060002090600402016040518060800160405290816000820160009054906101000a900473ffffffffffffffffffffffffffffffffffffffff1673ffffffffffffffffffffffffffffffffffffffff1673ffffffffffffffffffffffffffffffffffffffff1681526020016001820180546102b1906119c3565b80601f01602080910402602001604051908101604052809291908181526020018280546102dd906119c3565b801561032a5780601f106102ff5761010080835404028352916020019161032a565b820191906000526020600020905b81548152906001019060200180831161030d57829003601f168201915b505050505081526020016002820154815260200160038201548152505081526020019060010190610228565b50505050905090565b610367610fa0565b6103ab6040518060400160405280601781526020017f5765206861766520256420746f74616c20766f74657321000000000000000000815250600160000154610d5b565b6001604051806040016040529081600082015481526020016001820180548060200260200160405190810160405280929190818152602001828054801561041157602002820191906000526020600020905b8154815260200190600101908083116103fd575b505050505081525050905090565b610427610f5b565b6001831015801561043a57506000548311155b15610c80576000600360003373ffffffffffffffffffffffffffffffffffffffff1673ffffffffffffffffffffffffffffffffffffffff1681526020019081526020016000206040518060a00160405290816000820160009054906101000a900473ffffffffffffffffffffffffffffffffffffffff1673ffffffffffffffffffffffffffffffffffffffff1673ffffffffffffffffffffffffffffffffffffffff1681526020016001820154815260200160028201548152602001600382015481526020016004820180548060200260200160405190810160405280929190818152602001828054801561054e57602002820191906000526020600020905b81548152602001906001019080831161053a575b5050505050815250509050600073ffffffffffffffffffffffffffffffffffffffff16816000015173ffffffffffffffffffffffffffffffffffffffff1614156107355733816000019073ffffffffffffffffffffffffffffffffffffffff16908173ffffffffffffffffffffffffffffffffffffffff168152505084816040018181525050848160600181815250508060200180518091906105f0906119f5565b8152505060005467ffffffffffffffff811115610636577f4e487b7100000000000000000000000000000000000000000000000000000000600052604160045260246000fd5b6040519080825280602002602001820160405280156106645781602001602082028036833780820191505090505b50816080018190525060005b6000548110156106d8576000826080015182815181106106b9577f4e487b7100000000000000000000000000000000000000000000000000000000600052603260045260246000fd5b60200260200101818152505080806106d0906119f5565b915050610670565b50600181608001516001866106ed9190611911565b81518110610724577f4e487b7100000000000000000000000000000000000000000000000000000000600052603260045260246000fd5b60200260200101818152505061080a565b42603c826060015161074791906118bb565b10610787576040517f08c379a000000000000000000000000000000000000000000000000000000000815260040161077e906116ae565b60405180910390fd5b848160600181815250508060200180518091906107a3906119f5565b8152505080608001516001856107b99190611911565b815181106107f0577f4e487b7100000000000000000000000000000000000000000000000000000000600052603260045260246000fd5b602002602001018051809190610805906119f5565b815250505b600180600001600082825461081f91906118bb565b9250508190555080600360003373ffffffffffffffffffffffffffffffffffffffff1673ffffffffffffffffffffffffffffffffffffffff16815260200190815260200160002060008201518160000160006101000a81548173ffffffffffffffffffffffffffffffffffffffff021916908373ffffffffffffffffffffffffffffffffffffffff16021790555060208201518160010155604082015181600201556060820151816003015560808201518160040190805190602001906108e7929190610fba565b50905050600460405180608001604052803373ffffffffffffffffffffffffffffffffffffffff16815260200185815260200187815260200186815250908060018154018082558091505060019003906000526020600020906004020160009091909190915060008201518160000160006101000a81548173ffffffffffffffffffffffffffffffffffffffff021916908373ffffffffffffffffffffffffffffffffffffffff16021790555060208201518160010190805190602001906109b0929190611007565b5060408201518160020155606082015181600301555050600180016001856109d89190611911565b81548110610a0f577f4e487b7100000000000000000000000000000000000000000000000000000000600052603260045260246000fd5b906000526020600020016000815480929190610a2a906119f5565b91905055503373ffffffffffffffffffffffffffffffffffffffff167f5a2b5fe8692ce1fcc4ca55f8ea0237ea990620f1ceb24bb194f97923ccbbb4aa428587604051610a7993929190611772565b60405180910390a260646005544244610a9291906118bb565b610a9c91906118bb565b610aa69190611a3e565b600581905550610aed6040518060400160405280601681526020017f52616e646f6d20232067656e6572617465643a20256400000000000000000000815250600554610d5b565b603260055411610c3357610b366040518060400160405280600781526020017f257320776f6e210000000000000000000000000000000000000000000000000081525033610df7565b6000655af3107a4000905047811115610b84576040517f08c379a0000000000000000000000000000000000000000000000000000000008152600401610b7b906116ce565b60405180910390fd5b60003373ffffffffffffffffffffffffffffffffffffffff1682604051610baa906115b7565b60006040518083038185875af1925050503d8060008114610be7576040519150601f19603f3d011682016040523d82523d6000602084013e610bec565b606091505b5050905080610c30576040517f08c379a0000000000000000000000000000000000000000000000000000000008152600401610c27906116ee565b60405180910390fd5b50505b610c776040518060400160405280601681526020017f25732068617320766f7465642025732074696d65732100000000000000000000815250338360200151610e93565b80915050610cbb565b6040517f08c379a0000000000000000000000000000000000000000000000000000000008152600401610cb29061170e565b60405180910390fd5b9392505050565b610d5881604051602401610cd691906115ee565b6040516020818303038152906040527f41304fac000000000000000000000000000000000000000000000000000000007bffffffffffffffffffffffffffffffffffffffffffffffffffffffff19166020820180517bffffffffffffffffffffffffffffffffffffffffffffffffffffffff8381831617835250505050610f32565b50565b610df38282604051602401610d7192919061167e565b6040516020818303038152906040527f9710a9d0000000000000000000000000000000000000000000000000000000007bffffffffffffffffffffffffffffffffffffffffffffffffffffffff19166020820180517bffffffffffffffffffffffffffffffffffffffffffffffffffffffff8381831617835250505050610f32565b5050565b610e8f8282604051602401610e0d929190611610565b6040516020818303038152906040527f319af333000000000000000000000000000000000000000000000000000000007bffffffffffffffffffffffffffffffffffffffffffffffffffffffff19166020820180517bffffffffffffffffffffffffffffffffffffffffffffffffffffffff8381831617835250505050610f32565b5050565b610f2d838383604051602401610eab93929190611640565b6040516020818303038152906040527f07c81217000000000000000000000000000000000000000000000000000000007bffffffffffffffffffffffffffffffffffffffffffffffffffffffff19166020820180517bffffffffffffffffffffffffffffffffffffffffffffffffffffffff8381831617835250505050610f32565b505050565b60008151905060006a636f6e736f6c652e6c6f679050602083016000808483855afa5050505050565b6040518060a00160405280600073ffffffffffffffffffffffffffffffffffffffff168152602001600081526020016000815260200160008152602001606081525090565b604051806040016040528060008152602001606081525090565b828054828255906000526020600020908101928215610ff6579160200282015b82811115610ff5578251825591602001919060010190610fda565b5b509050611003919061108d565b5090565b828054611013906119c3565b90600052602060002090601f016020900481019282611035576000855561107c565b82601f1061104e57805160ff191683800117855561107c565b8280016001018555821561107c579182015b8281111561107b578251825591602001919060010190611060565b5b509050611089919061108d565b5090565b5b808211156110a657600081600090555060010161108e565b5090565b60006110bd6110b8846117e1565b6117b0565b9050828152602081018484840111156110d557600080fd5b6110e0848285611981565b509392505050565b600082601f8301126110f957600080fd5b81356111098482602086016110aa565b91505092915050565b60008135905061112181611b3c565b92915050565b60008060006060848603121561113c57600080fd5b600061114a86828701611112565b935050602061115b86828701611112565b925050604084013567ffffffffffffffff81111561117857600080fd5b611184868287016110e8565b9150509250925092565b600061119a83836114c0565b905092915050565b60006111ae8383611599565b60208301905092915050565b6111c381611945565b82525050565b6111d281611945565b82525050565b60006111e382611831565b6111ed818561186c565b9350836020820285016111ff85611811565b8060005b8581101561123b578484038952815161121c858261118e565b945061122783611852565b925060208a01995050600181019050611203565b50829750879550505050505092915050565b60006112588261183c565b611262818561187d565b935061126d83611821565b8060005b8381101561129e57815161128588826111a2565b97506112908361185f565b925050600181019050611271565b5085935050505092915050565b60006112b682611847565b6112c08185611899565b93506112d0818560208601611990565b6112d981611b2b565b840191505092915050565b60006112ef82611847565b6112f981856118aa565b9350611309818560208601611990565b61131281611b2b565b840191505092915050565b600061132a6007836118aa565b91507f5761697420316d000000000000000000000000000000000000000000000000006000830152602082019050919050565b600061136a6034836118aa565b91507f547279696e6720746f207769746864726177206d6f7265206d6f6e657920746860008301527f616e2074686520636f6e7472616374206861732e0000000000000000000000006020830152604082019050919050565b60006113d06027836118aa565b91507f4661696c656420746f207769746864726177206d6f6e65792066726f6d20636f60008301527f6e74726163742e000000000000000000000000000000000000000000000000006020830152604082019050919050565b60006114366018836118aa565b91507f4e6f20737563682063616e6469646174652065786973747300000000000000006000830152602082019050919050565b600061147660008361188e565b9150600082019050919050565b600060408301600083015161149b6000860182611599565b50602083015184820360208601526114b3828261124d565b9150508091505092915050565b60006080830160008301516114d860008601826111ba565b50602083015184820360208601526114f082826112ab565b91505060408301516115056040860182611599565b5060608301516115186060860182611599565b508091505092915050565b600060a08301600083015161153b60008601826111ba565b50602083015161154e6020860182611599565b5060408301516115616040860182611599565b5060608301516115746060860182611599565b506080830151848203608086015261158c828261124d565b9150508091505092915050565b6115a281611977565b82525050565b6115b181611977565b82525050565b60006115c282611469565b9150819050919050565b600060208201905081810360008301526115e681846111d8565b905092915050565b6000602082019050818103600083015261160881846112e4565b905092915050565b6000604082019050818103600083015261162a81856112e4565b905061163960208301846111c9565b9392505050565b6000606082019050818103600083015261165a81866112e4565b905061166960208301856111c9565b61167660408301846115a8565b949350505050565b6000604082019050818103600083015261169881856112e4565b90506116a760208301846115a8565b9392505050565b600060208201905081810360008301526116c78161131d565b9050919050565b600060208201905081810360008301526116e78161135d565b9050919050565b60006020820190508181036000830152611707816113c3565b9050919050565b6000602082019050818103600083015261172781611429565b9050919050565b600060208201905081810360008301526117488184611483565b905092915050565b6000602082019050818103600083015261176a8184611523565b905092915050565b600060608201905061178760008301866115a8565b818103602083015261179981856112e4565b90506117a860408301846115a8565b949350505050565b6000604051905081810181811067ffffffffffffffff821117156117d7576117d6611afc565b5b8060405250919050565b600067ffffffffffffffff8211156117fc576117fb611afc565b5b601f19601f8301169050602081019050919050565b6000819050602082019050919050565b6000819050602082019050919050565b600081519050919050565b600081519050919050565b600081519050919050565b6000602082019050919050565b6000602082019050919050565b600082825260208201905092915050565b600082825260208201905092915050565b600081905092915050565b600082825260208201905092915050565b600082825260208201905092915050565b60006118c682611977565b91506118d183611977565b9250827fffffffffffffffffffffffffffffffffffffffffffffffffffffffffffffffff0382111561190657611905611a6f565b5b828201905092915050565b600061191c82611977565b915061192783611977565b92508282101561193a57611939611a6f565b5b828203905092915050565b600061195082611957565b9050919050565b600073ffffffffffffffffffffffffffffffffffffffff82169050919050565b6000819050919050565b82818337600083830152505050565b60005b838110156119ae578082015181840152602081019050611993565b838111156119bd576000848401525b50505050565b600060028204905060018216806119db57607f821691505b602082108114156119ef576119ee611acd565b5b50919050565b6000611a0082611977565b91507fffffffffffffffffffffffffffffffffffffffffffffffffffffffffffffffff821415611a3357611a32611a6f565b5b600182019050919050565b6000611a4982611977565b9150611a5483611977565b925082611a6457611a63611a9e565b5b828206905092915050565b7f4e487b7100000000000000000000000000000000000000000000000000000000600052601160045260246000fd5b7f4e487b7100000000000000000000000000000000000000000000000000000000600052601260045260246000fd5b7f4e487b7100000000000000000000000000000000000000000000000000000000600052602260045260246000fd5b7f4e487b7100000000000000000000000000000000000000000000000000000000600052604160045260246000fd5b6000601f19601f8301169050919050565b611b4581611977565b8114611b5057600080fd5b5056fea26469706673582212203ed90bb5edded55f47a5ed92291d7c5a81b44cbd962091ec87b003767a6beea664736f6c63430008000033596f20796f2c204920616d206120636f6e747261637420616e64204920616d20736d617274",
  "linkReferences": {},
  "deployedLinkReferences": {}
}